{
  "_format": "hh-sol-artifact-1",
  "contractName": "Lab",
  "sourceName": "contracts/Lab.sol",
  "abi": [
    {
      "anonymous": false,
      "inputs": [
        {
          "indexed": false,
          "internalType": "uint256",
          "name": "id",
          "type": "uint256"
        },
        {
          "indexed": false,
          "internalType": "string",
          "name": "name",
          "type": "string"
        },
        {
          "indexed": false,
          "internalType": "address",
          "name": "owner",
          "type": "address"
        },
        {
          "indexed": false,
          "internalType": "bool",
          "name": "status",
          "type": "bool"
        },
        {
          "indexed": false,
          "internalType": "address",
          "name": "original_owner",
          "type": "address"
        }
      ],
      "name": "EquipmentCreated",
      "type": "event"
    },
    {
      "anonymous": false,
      "inputs": [
        {
          "indexed": false,
          "internalType": "uint256",
          "name": "id",
          "type": "uint256"
        },
        {
          "indexed": false,
          "internalType": "string",
          "name": "name",
          "type": "string"
        },
        {
          "indexed": false,
          "internalType": "address",
          "name": "owner",
          "type": "address"
        }
      ],
      "name": "EquipmentTransfered",
      "type": "event"
    },
    {
      "anonymous": false,
      "inputs": [
        {
          "indexed": false,
          "internalType": "uint256",
          "name": "id",
          "type": "uint256"
        },
        {
          "indexed": false,
          "internalType": "address",
          "name": "owner",
          "type": "address"
        }
      ],
      "name": "RequestCreated",
      "type": "event"
    },
    {
      "inputs": [
        {
          "internalType": "string",
          "name": "_name",
          "type": "string"
        }
      ],
      "name": "createProduct",
      "outputs": [],
      "stateMutability": "nonpayable",
      "type": "function"
    },
    {
      "inputs": [
        {
          "internalType": "uint256",
          "name": "id",
          "type": "uint256"
        }
      ],
      "name": "deleteProduct",
      "outputs": [],
      "stateMutability": "nonpayable",
      "type": "function"
    },
    {
      "inputs": [
        {
          "internalType": "uint256",
          "name": "_rcount",
          "type": "uint256"
        }
      ],
      "name": "deleteRequest",
      "outputs": [],
      "stateMutability": "nonpayable",
      "type": "function"
    },
    {
      "inputs": [],
      "name": "getAll",
      "outputs": [
        {
          "components": [
            {
              "internalType": "uint256",
              "name": "id",
              "type": "uint256"
            },
            {
              "internalType": "string",
              "name": "name",
              "type": "string"
            },
            {
              "internalType": "address",
              "name": "owner",
              "type": "address"
            },
            {
              "internalType": "bool",
              "name": "status",
              "type": "bool"
            },
            {
              "internalType": "address",
              "name": "original_owner",
              "type": "address"
            }
          ],
          "internalType": "struct Lab.Product[]",
          "name": "",
          "type": "tuple[]"
        }
      ],
      "stateMutability": "view",
      "type": "function"
    },
    {
      "inputs": [
        {
          "internalType": "uint256",
          "name": "_id",
          "type": "uint256"
        },
        {
          "internalType": "uint256",
          "name": "_rcount",
          "type": "uint256"
        }
      ],
      "name": "getProductTransaction",
      "outputs": [
        {
          "components": [
            {
              "internalType": "uint256",
              "name": "id",
              "type": "uint256"
            },
            {
              "internalType": "address",
              "name": "from",
              "type": "address"
            },
            {
              "internalType": "address",
              "name": "to",
              "type": "address"
            }
          ],
          "internalType": "struct Lab.transaction",
          "name": "",
          "type": "tuple"
        }
      ],
      "stateMutability": "view",
      "type": "function"
    },
    {
      "inputs": [
        {
          "internalType": "uint256",
          "name": "_id",
          "type": "uint256"
        }
      ],
      "name": "getProductTransactionCount",
      "outputs": [
        {
          "internalType": "uint256",
          "name": "",
          "type": "uint256"
        }
      ],
      "stateMutability": "view",
      "type": "function"
    },
    {
      "inputs": [
        {
          "internalType": "uint256",
          "name": "_rcount",
          "type": "uint256"
        }
      ],
      "name": "getRequest",
      "outputs": [
        {
          "components": [
            {
              "internalType": "uint256",
              "name": "productID",
              "type": "uint256"
            },
            {
              "internalType": "address",
              "name": "owner",
              "type": "address"
            }
          ],
          "internalType": "struct Lab.Request",
          "name": "",
          "type": "tuple"
        }
      ],
      "stateMutability": "view",
      "type": "function"
    },
    {
      "inputs": [],
      "name": "getRequestCount",
      "outputs": [
        {
          "internalType": "uint256",
          "name": "",
          "type": "uint256"
        }
      ],
      "stateMutability": "view",
      "type": "function"
    },
    {
      "inputs": [
        {
          "internalType": "uint256",
          "name": "_rcount",
          "type": "uint256"
        }
      ],
      "name": "getUserTransaction",
      "outputs": [
        {
          "components": [
            {
              "internalType": "uint256",
              "name": "id",
              "type": "uint256"
            },
            {
              "internalType": "address",
              "name": "from",
              "type": "address"
            },
            {
              "internalType": "address",
              "name": "to",
              "type": "address"
            }
          ],
          "internalType": "struct Lab.transaction",
          "name": "",
          "type": "tuple"
        }
      ],
      "stateMutability": "view",
      "type": "function"
    },
    {
      "inputs": [],
      "name": "getUserTransactionCount",
      "outputs": [
        {
          "internalType": "uint256",
          "name": "",
          "type": "uint256"
        }
      ],
      "stateMutability": "view",
      "type": "function"
    },
    {
      "inputs": [],
      "name": "getter",
      "outputs": [
        {
          "internalType": "uint256",
          "name": "",
          "type": "uint256"
        }
      ],
      "stateMutability": "view",
      "type": "function"
    },
    {
      "inputs": [],
      "name": "productCount",
      "outputs": [
        {
          "internalType": "uint256",
          "name": "",
          "type": "uint256"
        }
      ],
      "stateMutability": "view",
      "type": "function"
    },
    {
      "inputs": [
        {
          "internalType": "uint256",
          "name": "",
          "type": "uint256"
        }
      ],
      "name": "product_history",
      "outputs": [
        {
          "internalType": "uint256",
          "name": "TransactionCount",
          "type": "uint256"
        }
      ],
      "stateMutability": "view",
      "type": "function"
    },
    {
      "inputs": [
        {
          "internalType": "uint256",
          "name": "",
          "type": "uint256"
        }
      ],
      "name": "productlist",
      "outputs": [
        {
          "internalType": "uint256",
          "name": "id",
          "type": "uint256"
        },
        {
          "internalType": "string",
          "name": "name",
          "type": "string"
        },
        {
          "internalType": "address",
          "name": "owner",
          "type": "address"
        },
        {
          "internalType": "bool",
          "name": "status",
          "type": "bool"
        },
        {
          "internalType": "address",
          "name": "original_owner",
          "type": "address"
        }
      ],
      "stateMutability": "view",
      "type": "function"
    },
    {
      "inputs": [
        {
          "internalType": "uint256",
          "name": "",
          "type": "uint256"
        }
      ],
      "name": "products",
      "outputs": [
        {
          "internalType": "uint256",
          "name": "id",
          "type": "uint256"
        },
        {
          "internalType": "string",
          "name": "name",
          "type": "string"
        },
        {
          "internalType": "address",
          "name": "owner",
          "type": "address"
        },
        {
          "internalType": "bool",
          "name": "status",
          "type": "bool"
        },
        {
          "internalType": "address",
          "name": "original_owner",
          "type": "address"
        }
      ],
      "stateMutability": "view",
      "type": "function"
    },
    {
      "inputs": [
        {
          "internalType": "uint256",
          "name": "_rcount",
          "type": "uint256"
        }
      ],
      "name": "purchaseProduct",
      "outputs": [],
      "stateMutability": "nonpayable",
      "type": "function"
    },
    {
      "inputs": [
        {
          "internalType": "uint256",
          "name": "_id",
          "type": "uint256"
        }
      ],
      "name": "requestProduct",
      "outputs": [],
      "stateMutability": "nonpayable",
      "type": "function"
    },
    {
      "inputs": [
        {
          "internalType": "address",
          "name": "",
          "type": "address"
        }
      ],
      "name": "requests_wrapper",
      "outputs": [
        {
          "internalType": "uint256",
          "name": "requestCount",
          "type": "uint256"
        }
      ],
      "stateMutability": "view",
      "type": "function"
    },
    {
      "inputs": [
        {
          "internalType": "uint256",
          "name": "_a",
          "type": "uint256"
        }
      ],
      "name": "setter",
      "outputs": [],
      "stateMutability": "nonpayable",
      "type": "function"
    },
    {
      "inputs": [
        {
          "internalType": "address",
          "name": "",
          "type": "address"
        }
      ],
      "name": "user_history",
      "outputs": [
        {
          "internalType": "uint256",
          "name": "TransactionCount",
          "type": "uint256"
        }
      ],
      "stateMutability": "view",
      "type": "function"
    }
  ],
  "bytecode": "0x60806040526000805534801561001457600080fd5b506126b8806100246000396000f3fe608060405234801561001057600080fd5b506004361061012c5760003560e01c8063b321832c116100ad578063e0f6ef8711610071578063e0f6ef8714610371578063e13349c31461038f578063e9a21bcd146103bf578063ea9ac32c146103db578063ed90c7b71461040b5761012c565b8063b321832c14610291578063c279c42d146102c1578063c58343ef146102f1578063d423740b14610321578063debd866e1461033d5761012c565b806349194b09116100f457806349194b09146101d557806353ed5143146101f157806364c147b51461020f5780637acc0b201461023f578063993a04b7146102735761012c565b806302ec06be146101315780631b6826df1461014d57806338e76a031461016b5780633a0c4595146101875780633fad1834146101b7575b600080fd5b61014b60048036038101906101469190611d1e565b610427565b005b610155610713565b6040516101629190611d80565b60405180910390f35b61018560048036038101906101809190611dc7565b61075d565b005b6101a1600480360381019061019c9190611dc7565b610b5d565b6040516101ae9190611d80565b60405180910390f35b6101bf610b7b565b6040516101cc9190611d80565b60405180910390f35b6101ef60048036038101906101ea9190611dc7565b610bc5565b005b6101f9610f5a565b6040516102069190612016565b60405180910390f35b61022960048036038101906102249190612064565b61111c565b6040516102369190611d80565b60405180910390f35b61025960048036038101906102549190611dc7565b61113a565b60405161026a9594939291906120f9565b60405180910390f35b61027b611245565b6040516102889190611d80565b60405180910390f35b6102ab60048036038101906102a69190611dc7565b61124f565b6040516102b89190611d80565b60405180910390f35b6102db60048036038101906102d69190611dc7565b61126f565b6040516102e89190612195565b60405180910390f35b61030b60048036038101906103069190611dc7565b611392565b60405161031891906121df565b60405180910390f35b61033b60048036038101906103369190611dc7565b61145f565b005b61035760048036038101906103529190611dc7565b611469565b6040516103689594939291906120f9565b60405180910390f35b610379611584565b6040516103869190611d80565b60405180910390f35b6103a960048036038101906103a491906121fa565b61158a565b6040516103b69190612195565b60405180910390f35b6103d960048036038101906103d49190611dc7565b611682565b005b6103f560048036038101906103f09190612064565b611a1c565b6040516104029190611d80565b60405180910390f35b61042560048036038101906104209190611dc7565b611a3a565b005b60008081548092919061043990612269565b919050555060056040518060a0016040528060005481526020018381526020013373ffffffffffffffffffffffffffffffffffffffff1681526020016001151581526020013373ffffffffffffffffffffffffffffffffffffffff1681525090806001815401808255809150506001900390600052602060002090600402016000909190919091506000820151816000015560208201518160010190816104e091906124bd565b5060408201518160020160006101000a81548173ffffffffffffffffffffffffffffffffffffffff021916908373ffffffffffffffffffffffffffffffffffffffff16021790555060608201518160020160146101000a81548160ff02191690831515021790555060808201518160030160006101000a81548173ffffffffffffffffffffffffffffffffffffffff021916908373ffffffffffffffffffffffffffffffffffffffff16021790555050506040518060a0016040528060005481526020018281526020013373ffffffffffffffffffffffffffffffffffffffff1681526020016001151581526020013373ffffffffffffffffffffffffffffffffffffffff16815250600160008054815260200190815260200160002060008201518160000155602082015181600101908161061c91906124bd565b5060408201518160020160006101000a81548173ffffffffffffffffffffffffffffffffffffffff021916908373ffffffffffffffffffffffffffffffffffffffff16021790555060608201518160020160146101000a81548160ff02191690831515021790555060808201518160030160006101000a81548173ffffffffffffffffffffffffffffffffffffffff021916908373ffffffffffffffffffffffffffffffffffffffff1602179055509050507fda66f66a199a6c17a2977542c5ee4acbb0d68d7948cf5e271d2e3fa635028f0360005482336001336040516107089594939291906120f9565b60405180910390a150565b6000600460003373ffffffffffffffffffffffffffffffffffffffff1673ffffffffffffffffffffffffffffffffffffffff16815260200190815260200160002060000154905090565b600061076882611392565b9050600060016000836000015181526020019081526020016000206040518060a0016040529081600082015481526020016001820180546107a8906122e0565b80601f01602080910402602001604051908101604052809291908181526020018280546107d4906122e0565b80156108215780601f106107f657610100808354040283529160200191610821565b820191906000526020600020905b81548152906001019060200180831161080457829003601f168201915b505050505081526020016002820160009054906101000a900473ffffffffffffffffffffffffffffffffffffffff1673ffffffffffffffffffffffffffffffffffffffff1673ffffffffffffffffffffffffffffffffffffffff1681526020016002820160149054906101000a900460ff161515151581526020016003820160009054906101000a900473ffffffffffffffffffffffffffffffffffffffff1673ffffffffffffffffffffffffffffffffffffffff1673ffffffffffffffffffffffffffffffffffffffff16815250509050600081604001519050826020015173ffffffffffffffffffffffffffffffffffffffff168173ffffffffffffffffffffffffffffffffffffffff160361093857600080fd5b3373ffffffffffffffffffffffffffffffffffffffff168173ffffffffffffffffffffffffffffffffffffffff161461097057600080fd5b8260200151826040019073ffffffffffffffffffffffffffffffffffffffff16908173ffffffffffffffffffffffffffffffffffffffff1681525050826020015160056001866109c0919061258f565b815481106109d1576109d06125c3565b5b906000526020600020906004020160020160006101000a81548173ffffffffffffffffffffffffffffffffffffffff021916908373ffffffffffffffffffffffffffffffffffffffff160217905550816001600085600001518152602001908152602001600020600082015181600001556020820151816001019081610a5791906124bd565b5060408201518160020160006101000a81548173ffffffffffffffffffffffffffffffffffffffff021916908373ffffffffffffffffffffffffffffffffffffffff16021790555060608201518160020160146101000a81548160ff02191690831515021790555060808201518160030160006101000a81548173ffffffffffffffffffffffffffffffffffffffff021916908373ffffffffffffffffffffffffffffffffffffffff160217905550905050610b1284611682565b7faa87f233c44031be158e00c57491cbae4711561b5cd9d100e2daa94683f7fdd060005483602001518560200151604051610b4f939291906125f2565b60405180910390a150505050565b60036020528060005260406000206000915090508060000154905081565b6000600260003373ffffffffffffffffffffffffffffffffffffffff1673ffffffffffffffffffffffffffffffffffffffff16815260200190815260200160002060000154905090565b6000600160008381526020019081526020016000206040518060a001604052908160008201548152602001600182018054610bff906122e0565b80601f0160208091040260200160405190810160405280929190818152602001828054610c2b906122e0565b8015610c785780601f10610c4d57610100808354040283529160200191610c78565b820191906000526020600020905b815481529060010190602001808311610c5b57829003601f168201915b505050505081526020016002820160009054906101000a900473ffffffffffffffffffffffffffffffffffffffff1673ffffffffffffffffffffffffffffffffffffffff1673ffffffffffffffffffffffffffffffffffffffff1681526020016002820160149054906101000a900460ff161515151581526020016003820160009054906101000a900473ffffffffffffffffffffffffffffffffffffffff1673ffffffffffffffffffffffffffffffffffffffff1673ffffffffffffffffffffffffffffffffffffffff1681525050905060008160400151905060008260000151118015610d6d5750600054826000015111155b610d7657600080fd5b3373ffffffffffffffffffffffffffffffffffffffff168173ffffffffffffffffffffffffffffffffffffffff1603610dae57600080fd5b600260008273ffffffffffffffffffffffffffffffffffffffff1673ffffffffffffffffffffffffffffffffffffffff1681526020019081526020016000206000016000815480929190610e0190612269565b919050555060405180604001604052808481526020013373ffffffffffffffffffffffffffffffffffffffff16815250600260008373ffffffffffffffffffffffffffffffffffffffff1673ffffffffffffffffffffffffffffffffffffffff1681526020019081526020016000206001016000600260008573ffffffffffffffffffffffffffffffffffffffff1673ffffffffffffffffffffffffffffffffffffffff1681526020019081526020016000206000015481526020019081526020016000206000820151816000015560208201518160010160006101000a81548173ffffffffffffffffffffffffffffffffffffffff021916908373ffffffffffffffffffffffffffffffffffffffff1602179055509050507f233bb55fd57b21b8a3d15c9ad8fbbab435fe4cf2865cc654f6a57d9d4d8cda5460005433604051610f4d929190612630565b60405180910390a1505050565b60606005805480602002602001604051908101604052809291908181526020016000905b8282101561111357838290600052602060002090600402016040518060a001604052908160008201548152602001600182018054610fbb906122e0565b80601f0160208091040260200160405190810160405280929190818152602001828054610fe7906122e0565b80156110345780601f1061100957610100808354040283529160200191611034565b820191906000526020600020905b81548152906001019060200180831161101757829003601f168201915b505050505081526020016002820160009054906101000a900473ffffffffffffffffffffffffffffffffffffffff1673ffffffffffffffffffffffffffffffffffffffff1673ffffffffffffffffffffffffffffffffffffffff1681526020016002820160149054906101000a900460ff161515151581526020016003820160009054906101000a900473ffffffffffffffffffffffffffffffffffffffff1673ffffffffffffffffffffffffffffffffffffffff1673ffffffffffffffffffffffffffffffffffffffff168152505081526020019060010190610f7e565b50505050905090565b60046020528060005260406000206000915090508060000154905081565b6001602052806000526040600020600091509050806000015490806001018054611163906122e0565b80601f016020809104026020016040519081016040528092919081815260200182805461118f906122e0565b80156111dc5780601f106111b1576101008083540402835291602001916111dc565b820191906000526020600020905b8154815290600101906020018083116111bf57829003601f168201915b5050505050908060020160009054906101000a900473ffffffffffffffffffffffffffffffffffffffff16908060020160149054906101000a900460ff16908060030160009054906101000a900473ffffffffffffffffffffffffffffffffffffffff16905085565b6000600654905090565b600060036000838152602001908152602001600020600001549050919050565b611277611b47565b600460003373ffffffffffffffffffffffffffffffffffffffff1673ffffffffffffffffffffffffffffffffffffffff1681526020019081526020016000206001016000838152602001908152602001600020604051806060016040529081600082015481526020016001820160009054906101000a900473ffffffffffffffffffffffffffffffffffffffff1673ffffffffffffffffffffffffffffffffffffffff1673ffffffffffffffffffffffffffffffffffffffff1681526020016002820160009054906101000a900473ffffffffffffffffffffffffffffffffffffffff1673ffffffffffffffffffffffffffffffffffffffff1673ffffffffffffffffffffffffffffffffffffffff16815250509050919050565b61139a611b94565b600260003373ffffffffffffffffffffffffffffffffffffffff1673ffffffffffffffffffffffffffffffffffffffff1681526020019081526020016000206001016000838152602001908152602001600020604051806040016040529081600082015481526020016001820160009054906101000a900473ffffffffffffffffffffffffffffffffffffffff1673ffffffffffffffffffffffffffffffffffffffff1673ffffffffffffffffffffffffffffffffffffffff16815250509050919050565b8060068190555050565b6005818154811061147957600080fd5b90600052602060002090600402016000915090508060000154908060010180546114a2906122e0565b80601f01602080910402602001604051908101604052809291908181526020018280546114ce906122e0565b801561151b5780601f106114f05761010080835404028352916020019161151b565b820191906000526020600020905b8154815290600101906020018083116114fe57829003601f168201915b5050505050908060020160009054906101000a900473ffffffffffffffffffffffffffffffffffffffff16908060020160149054906101000a900460ff16908060030160009054906101000a900473ffffffffffffffffffffffffffffffffffffffff16905085565b60005481565b611592611b47565b600360008481526020019081526020016000206001016000838152602001908152602001600020604051806060016040529081600082015481526020016001820160009054906101000a900473ffffffffffffffffffffffffffffffffffffffff1673ffffffffffffffffffffffffffffffffffffffff1673ffffffffffffffffffffffffffffffffffffffff1681526020016002820160009054906101000a900473ffffffffffffffffffffffffffffffffffffffff1673ffffffffffffffffffffffffffffffffffffffff1673ffffffffffffffffffffffffffffffffffffffff1681525050905092915050565b6000339050600260008273ffffffffffffffffffffffffffffffffffffffff1673ffffffffffffffffffffffffffffffffffffffff1681526020019081526020016000206001016000600260008473ffffffffffffffffffffffffffffffffffffffff1673ffffffffffffffffffffffffffffffffffffffff168152602001908152602001600020600001548152602001908152602001600020600260008373ffffffffffffffffffffffffffffffffffffffff1673ffffffffffffffffffffffffffffffffffffffff1681526020019081526020016000206001016000848152602001908152602001600020600082015481600001556001820160009054906101000a900473ffffffffffffffffffffffffffffffffffffffff168160010160006101000a81548173ffffffffffffffffffffffffffffffffffffffff021916908373ffffffffffffffffffffffffffffffffffffffff160217905550905050600260008273ffffffffffffffffffffffffffffffffffffffff1673ffffffffffffffffffffffffffffffffffffffff168152602001908152602001600020600001600081548092919061183690612659565b9190505550600061184683611392565b9050600060016000836000015181526020019081526020016000206040518060a001604052908160008201548152602001600182018054611886906122e0565b80601f01602080910402602001604051908101604052809291908181526020018280546118b2906122e0565b80156118ff5780601f106118d4576101008083540402835291602001916118ff565b820191906000526020600020905b8154815290600101906020018083116118e257829003601f168201915b505050505081526020016002820160009054906101000a900473ffffffffffffffffffffffffffffffffffffffff1673ffffffffffffffffffffffffffffffffffffffff1673ffffffffffffffffffffffffffffffffffffffff1681526020016002820160149054906101000a900460ff161515151581526020016003820160009054906101000a900473ffffffffffffffffffffffffffffffffffffffff1673ffffffffffffffffffffffffffffffffffffffff1673ffffffffffffffffffffffffffffffffffffffff168152505090507faa87f233c44031be158e00c57491cbae4711561b5cd9d100e2daa94683f7fdd060005482602001518460200151604051611a0e939291906125f2565b60405180910390a150505050565b60026020528060005260406000206000915090508060000154905081565b6005600182611a49919061258f565b81548110611a5a57611a596125c3565b5b906000526020600020906004020160020160009054906101000a900473ffffffffffffffffffffffffffffffffffffffff1673ffffffffffffffffffffffffffffffffffffffff163373ffffffffffffffffffffffffffffffffffffffff1603611b445760006005600183611acf919061258f565b81548110611ae057611adf6125c3565b5b906000526020600020906004020160020160146101000a81548160ff021916908315150217905550600060016000600184611b1b919061258f565b815260200190815260200160002060020160146101000a81548160ff0219169083151502179055505b50565b604051806060016040528060008152602001600073ffffffffffffffffffffffffffffffffffffffff168152602001600073ffffffffffffffffffffffffffffffffffffffff1681525090565b604051806040016040528060008152602001600073ffffffffffffffffffffffffffffffffffffffff1681525090565b6000604051905090565b600080fd5b600080fd5b600080fd5b600080fd5b6000601f19601f8301169050919050565b7f4e487b7100000000000000000000000000000000000000000000000000000000600052604160045260246000fd5b611c2b82611be2565b810181811067ffffffffffffffff82111715611c4a57611c49611bf3565b5b80604052505050565b6000611c5d611bc4565b9050611c698282611c22565b919050565b600067ffffffffffffffff821115611c8957611c88611bf3565b5b611c9282611be2565b9050602081019050919050565b82818337600083830152505050565b6000611cc1611cbc84611c6e565b611c53565b905082815260208101848484011115611cdd57611cdc611bdd565b5b611ce8848285611c9f565b509392505050565b600082601f830112611d0557611d04611bd8565b5b8135611d15848260208601611cae565b91505092915050565b600060208284031215611d3457611d33611bce565b5b600082013567ffffffffffffffff811115611d5257611d51611bd3565b5b611d5e84828501611cf0565b91505092915050565b6000819050919050565b611d7a81611d67565b82525050565b6000602082019050611d956000830184611d71565b92915050565b611da481611d67565b8114611daf57600080fd5b50565b600081359050611dc181611d9b565b92915050565b600060208284031215611ddd57611ddc611bce565b5b6000611deb84828501611db2565b91505092915050565b600081519050919050565b600082825260208201905092915050565b6000819050602082019050919050565b611e2981611d67565b82525050565b600081519050919050565b600082825260208201905092915050565b60005b83811015611e69578082015181840152602081019050611e4e565b60008484015250505050565b6000611e8082611e2f565b611e8a8185611e3a565b9350611e9a818560208601611e4b565b611ea381611be2565b840191505092915050565b600073ffffffffffffffffffffffffffffffffffffffff82169050919050565b6000611ed982611eae565b9050919050565b611ee981611ece565b82525050565b60008115159050919050565b611f0481611eef565b82525050565b600060a083016000830151611f226000860182611e20565b5060208301518482036020860152611f3a8282611e75565b9150506040830151611f4f6040860182611ee0565b506060830151611f626060860182611efb565b506080830151611f756080860182611ee0565b508091505092915050565b6000611f8c8383611f0a565b905092915050565b6000602082019050919050565b6000611fac82611df4565b611fb68185611dff565b935083602082028501611fc885611e10565b8060005b858110156120045784840389528151611fe58582611f80565b9450611ff083611f94565b925060208a01995050600181019050611fcc565b50829750879550505050505092915050565b600060208201905081810360008301526120308184611fa1565b905092915050565b61204181611ece565b811461204c57600080fd5b50565b60008135905061205e81612038565b92915050565b60006020828403121561207a57612079611bce565b5b60006120888482850161204f565b91505092915050565b600082825260208201905092915050565b60006120ad82611e2f565b6120b78185612091565b93506120c7818560208601611e4b565b6120d081611be2565b840191505092915050565b6120e481611ece565b82525050565b6120f381611eef565b82525050565b600060a08201905061210e6000830188611d71565b818103602083015261212081876120a2565b905061212f60408301866120db565b61213c60608301856120ea565b61214960808301846120db565b9695505050505050565b6060820160008201516121696000850182611e20565b50602082015161217c6020850182611ee0565b50604082015161218f6040850182611ee0565b50505050565b60006060820190506121aa6000830184612153565b92915050565b6040820160008201516121c66000850182611e20565b5060208201516121d96020850182611ee0565b50505050565b60006040820190506121f460008301846121b0565b92915050565b6000806040838503121561221157612210611bce565b5b600061221f85828601611db2565b925050602061223085828601611db2565b9150509250929050565b7f4e487b7100000000000000000000000000000000000000000000000000000000600052601160045260246000fd5b600061227482611d67565b91507fffffffffffffffffffffffffffffffffffffffffffffffffffffffffffffffff82036122a6576122a561223a565b5b600182019050919050565b7f4e487b7100000000000000000000000000000000000000000000000000000000600052602260045260246000fd5b600060028204905060018216806122f857607f821691505b60208210810361230b5761230a6122b1565b5b50919050565b60008190508160005260206000209050919050565b60006020601f8301049050919050565b600082821b905092915050565b6000600883026123737fffffffffffffffffffffffffffffffffffffffffffffffffffffffffffffffff82612336565b61237d8683612336565b95508019841693508086168417925050509392505050565b6000819050919050565b60006123ba6123b56123b084611d67565b612395565b611d67565b9050919050565b6000819050919050565b6123d48361239f565b6123e86123e0826123c1565b848454612343565b825550505050565b600090565b6123fd6123f0565b6124088184846123cb565b505050565b5b8181101561242c576124216000826123f5565b60018101905061240e565b5050565b601f8211156124715761244281612311565b61244b84612326565b8101602085101561245a578190505b61246e61246685612326565b83018261240d565b50505b505050565b600082821c905092915050565b600061249460001984600802612476565b1980831691505092915050565b60006124ad8383612483565b9150826002028217905092915050565b6124c682611e2f565b67ffffffffffffffff8111156124df576124de611bf3565b5b6124e982546122e0565b6124f4828285612430565b600060209050601f8311600181146125275760008415612515578287015190505b61251f85826124a1565b865550612587565b601f19841661253586612311565b60005b8281101561255d57848901518255600182019150602085019450602081019050612538565b8683101561257a5784890151612576601f891682612483565b8355505b6001600288020188555050505b505050505050565b600061259a82611d67565b91506125a583611d67565b92508282039050818111156125bd576125bc61223a565b5b92915050565b7f4e487b7100000000000000000000000000000000000000000000000000000000600052603260045260246000fd5b60006060820190506126076000830186611d71565b818103602083015261261981856120a2565b905061262860408301846120db565b949350505050565b60006040820190506126456000830185611d71565b61265260208301846120db565b9392505050565b600061266482611d67565b9150600082036126775761267661223a565b5b60018203905091905056fea2646970667358221220c83cd41ab31ba1a74409c29fde7b85964f96efc2712256bf49c1c71323fe8bac64736f6c63430008120033",
  "linkReferences": {},
  "deployedLinkReferences": {}
}